:100000000C9461000C9473000C9473000C947300B6
:100010000C9473000C9473000C9473000C94730094
:100020000C9473000C9473000C9473000C94730084
:100030000C9473000C9473000C9473000C94730074
:100040000C9458010C9473000C9473000C9473007E
:100050000C9473000C9473000C9473000C94730054
:100060000C9473000C94730000000000240027001F
:100070002A0000000000250028002B0000000000DE
:1000800023002600290004040404040404040202DA
:100090000202020203030303030301020408102007
:1000A0004080010204081020010204081020000012
:1000B0000008000201000003040700000000000027
:1000C000000011241FBECFEFD8E0DEBFCDBF21E07E
:1000D000A0E0B1E001C01D92A631B207E1F70E9495
:1000E000A2010C943C030C940000833081F028F4AE
:1000F000813099F08230A1F008958730A9F08830DE
:10010000B9F08430D1F4809180008F7D03C080915C
:1001100080008F7780938000089584B58F7702C028
:1001200084B58F7D84BD08958091B0008F7703C022
:100130008091B0008F7D8093B0000895CF93DF93BE
:10014000282F30E0F901E255FF4F8491F901E6567E
:10015000FF4FD491F901EA57FF4FC491CC2391F09E
:1001600081110E947500EC2FF0E0EE0FFF1FE458A4
:10017000FF4FA591B491EC91ED2381E090E021F443
:1001800080E002C080E090E0DF91CF9108951F935E
:10019000CF93DF93282F30E0F901E255FF4F849190
:1001A000F901E656FF4FD491F901EA57FF4FC49188
:1001B000CC23C9F0162F81110E947500EC2FF0E0BE
:1001C000EE0FFF1FEE58FF4FA591B4918FB7F89433
:1001D000111105C09C91ED2FE095E92302C0EC912F
:1001E000ED2BEC938FBFDF91CF911F910895CF93AB
:1001F000DF9390E0FC01E656FF4F2491FC01EA57A3
:10020000FF4F8491882361F190E0880F991FFC01D2
:10021000E859FF4FC591D491FC01EE58FF4FA591CD
:10022000B491611109C09FB7F89488812095822309
:100230008883EC912E230BC0623061F49FB7F89451
:100240003881822F809583238883EC912E2B2C93E9
:100250009FBF06C08FB7F894E8812E2B28838FBFED
:10026000DF91CF9108953FB7F89480910501909167
:100270000601A0910701B091080126B5A89B05C011
:100280002F3F19F00196A11DB11D3FBFBA2FA92F15
:10029000982F8827820F911DA11DB11DBC01CD0192
:1002A00042E0660F771F881F991F4A95D1F708957E
:1002B0001F920F920FB60F9211242F933F938F939B
:1002C0009F93AF93BF938091010190910201A09100
:1002D0000301B09104013091000123E0230F2D3779
:1002E00020F40196A11DB11D05C026E8230F02963A
:1002F000A11DB11D20930001809301019093020183
:10030000A0930301B093040180910501909106012F
:10031000A0910701B09108010196A11DB11D809324
:10032000050190930601A0930701B0930801BF91C6
:10033000AF919F918F913F912F910F900FBE0F9092
:100340001F901895789484B5826084BD84B58160CF
:1003500084BD85B5826085BD85B5816085BD809190
:100360006E00816080936E00109281008091810008
:100370008260809381008091810081608093810000
:10038000809180008160809380008091B1008460C2
:100390008093B1008091B00081608093B000809123
:1003A0007A00846080937A0080917A0082608093E2
:1003B0007A0080917A00816080937A0080917A003F
:1003C000806880937A001092C10060E080E00E9413
:1003D000F70060E081E00E94F70060E082E00E94A8
:1003E000F70060E083E00E94F70060E084E00E9494
:1003F000F70060E085E00E94F70061E086E00E947F
:10040000F70061E087E00E94F70061E088E00E9469
:10041000F70061E089E00E94F70061E08AE00E9455
:10042000F70090E0A92E90E0B92ECFEFDFEF0AE2BF
:1004300010E081E00E949E002C01909315018093B2
:10044000140182E00E949E003C019093130180936E
:10045000120183E00E949E006C0190931101809331
:10046000100184E00E949E007C0190930F01809314
:100470000E0185E00E949E0090930D0180930C0177
:100480004A94452821F4D0931501C09314016A942D
:10049000672821F4D0931301C0931201CA94CD2888
:1004A00021F4D0931101C0931001EA94EF2821F4B4
:1004B000D0930F01C0930E01019721F4D0930D0149
:1004C000C0930C0180E00E949E0090930B018093EA
:1004D0000A01019709F0C9C080911401909115019A
:1004E000019639F081E00E949E009093150180935F
:1004F00014018091120190911301019639F082E06C
:100500000E949E009093130180931201809110012C
:1005100090911101019639F083E00E949E00909322
:1005200011018093100180910E0190910F010196AD
:1005300039F084E00E949E0090930F0180930E0199
:1005400080910C0190910D01019639F085E00E9497
:100550009E0090930D0180930C0181E0809309012E
:100560008091140190911501019739F410931501B0
:100570000093140161E086E00CC08091120190911B
:100580001301019749F4109313010093120161E0E4
:1005900087E00E94C70029C080911001909111014D
:1005A000019739F4109311010093100161E088E084
:1005B000F0CF80910E0190910F01019739F41093C3
:1005C0000F0100930E0161E089E0E3CF80910C01FF
:1005D00090910D01019739F410930D0100930C01D6
:1005E00061E08AE0D6CF1092090180910901882349
:1005F00009F472CF0E9433012B013C0188E8C82E18
:1006000083E1D82EE12CF12C0E943301DC01CB01D7
:1006100084199509A609B709883E9340A105B1053B
:1006200058F081E0C81AD108E108F10828EE420E1E
:1006300023E0521E611C711CC114D104E104F104B9
:1006400019F760E086E00E94C70060E087E00E9442
:10065000C70060E088E00E94C70060E089E00E9477
:10066000C70060E08AE00E94C700A114B10409F449
:0C067000E0CE0E940000DDCEF894FFCF29
:107E0000112484B714BE81FFF0D085E080938100F7
:107E100082E08093C00088E18093C10086E0809377
:107E2000C20080E18093C4008EE0C9D0259A86E02C
:107E300020E33CEF91E0309385002093840096BBD3
:107E4000B09BFECF1D9AA8958150A9F7CC24DD24C4
:107E500088248394B5E0AB2EA1E19A2EF3E0BF2EE7
:107E6000A2D0813461F49FD0082FAFD0023811F036
:107E7000013811F484E001C083E08DD089C08234E0
:107E800011F484E103C0853419F485E0A6D080C0E4
:107E9000853579F488D0E82EFF2485D0082F10E0AE
:107EA000102F00270E291F29000F111F8ED06801E7
:107EB0006FC0863521F484E090D080E0DECF843638
:107EC00009F040C070D06FD0082F6DD080E0C81688
:107ED00080E7D80618F4F601B7BEE895C0E0D1E017
:107EE00062D089930C17E1F7F0E0CF16F0E7DF06D8
:107EF00018F0F601B7BEE89568D007B600FCFDCFD4
:107F0000A601A0E0B1E02C9130E011968C91119780
:107F100090E0982F8827822B932B1296FA010C0160
:107F200087BEE89511244E5F5F4FF1E0A038BF0790
:107F300051F7F601A7BEE89507B600FCFDCF97BE46
:107F4000E89526C08437B1F42ED02DD0F82E2BD052
:107F50003CD0F601EF2C8F010F5F1F4F84911BD097
:107F6000EA94F801C1F70894C11CD11CFA94CF0C13
:107F7000D11C0EC0853739F428D08EE10CD085E9AC
:107F80000AD08FE07ACF813511F488E018D01DD067
:107F900080E101D065CF982F8091C00085FFFCCF94
:107FA0009093C60008958091C00087FFFCCF809118
:107FB000C00084FD01C0A8958091C6000895E0E648
:107FC000F0E098E1908380830895EDDF803219F02E
:107FD00088E0F5DFFFCF84E1DECF1F93182FE3DFCA
:107FE0001150E9F7F2DF1F91089580E0E8DFEE27F6
:047FF000FF270994CA
:027FFE00040479
:0400000300007E007B
:00000001FF
